{
  "abi": [
    {
      "inputs": [
        {
          "internalType": "address",
          "name": "_implementation",
          "type": "address"
        },
        {
          "internalType": "address",
          "name": "_bridge",
          "type": "address"
        }
      ],
      "stateMutability": "nonpayable",
      "type": "constructor"
    },
    {
      "inputs": [],
      "name": "BridgeAddressCannotBeZero",
      "type": "error"
    },
    {
      "inputs": [],
      "name": "ERC1167FailedCreateClone",
      "type": "error"
    },
    {
      "inputs": [],
      "name": "ImplementationCannotBeNull",
      "type": "error"
    },
    {
      "inputs": [],
      "name": "RemoteTokenCannotBeZeroAddress",
      "type": "error"
    },
    {
      "anonymous": false,
      "inputs": [
        {
          "indexed": true,
          "internalType": "address",
          "name": "remoteToken",
          "type": "address"
        },
        {
          "indexed": true,
          "internalType": "address",
          "name": "localToken",
          "type": "address"
        },
        {
          "indexed": false,
          "internalType": "address",
          "name": "deployer",
          "type": "address"
        }
      ],
      "name": "SuperMigrateERC20Created",
      "type": "event"
    },
    {
      "inputs": [],
      "name": "BRIDGE",
      "outputs": [
        {
          "internalType": "address",
          "name": "",
          "type": "address"
        }
      ],
      "stateMutability": "view",
      "type": "function"
    },
    {
      "inputs": [],
      "name": "SuperMigrateErc20",
      "outputs": [
        {
          "internalType": "address",
          "name": "",
          "type": "address"
        }
      ],
      "stateMutability": "view",
      "type": "function"
    },
    {
      "inputs": [
        {
          "internalType": "address",
          "name": "_remoteToken",
          "type": "address"
        },
        {
          "internalType": "string",
          "name": "_name",
          "type": "string"
        },
        {
          "internalType": "string",
          "name": "_symbol",
          "type": "string"
        },
        {
          "internalType": "uint8",
          "name": "_decimals",
          "type": "uint8"
        }
      ],
      "name": "beSuper",
      "outputs": [
        {
          "internalType": "address",
          "name": "",
          "type": "address"
        }
      ],
      "stateMutability": "nonpayable",
      "type": "function"
    },
    {
      "inputs": [],
      "name": "version",
      "outputs": [
        {
          "internalType": "string",
          "name": "",
          "type": "string"
        }
      ],
      "stateMutability": "view",
      "type": "function"
    }
  ],
  "bytecode": {
    "object": "0x60c060405234801561001057600080fd5b506040516106b83803806106b883398101604081905261002f916100b0565b6001600160a01b03811661005657604051635e9c404d60e11b815260040160405180910390fd5b6001600160a01b03821661007d5760405163f9f4e47960e01b815260040160405180910390fd5b6001600160a01b039182166080521660a0526100e3565b80516001600160a01b03811681146100ab57600080fd5b919050565b600080604083850312156100c357600080fd5b6100cc83610094565b91506100da60208401610094565b90509250929050565b60805160a0516105a36101156000396000818161010701526101f001526000818160e0015261017f01526105a36000f3fe608060405234801561001057600080fd5b506004361061004c5760003560e01c806354fd4d50146100515780638c5b0cd8146100a35780639fa84d55146100db578063ee9a31a214610102575b600080fd5b61008d6040518060400160405280600581526020017f312e302e3000000000000000000000000000000000000000000000000000000081525081565b60405161009a91906103a6565b60405180910390f35b6100b66100b136600461049a565b610129565b60405173ffffffffffffffffffffffffffffffffffffffff909116815260200161009a565b6100b67f000000000000000000000000000000000000000000000000000000000000000081565b6100b67f000000000000000000000000000000000000000000000000000000000000000081565b600073ffffffffffffffffffffffffffffffffffffffff8516610178576040517fb354420000000000000000000000000000000000000000000000000000000000815260040160405180910390fd5b60006101a37f00000000000000000000000000000000000000000000000000000000000000006102aa565b6040517f8420ce9900000000000000000000000000000000000000000000000000000000815290915073ffffffffffffffffffffffffffffffffffffffff821690638420ce9990610220907f0000000000000000000000000000000000000000000000000000000000000000908a908a908a908a90600401610542565b600060405180830381600087803b15801561023a57600080fd5b505af115801561024e573d6000803e3d6000fd5b505060405133815273ffffffffffffffffffffffffffffffffffffffff8085169350891691507f8bdec2d320a6dbdb7c9913db043bb14de7b93a980aba02c4b1748e0240bdd7e79060200160405180910390a395945050505050565b6000763d602d80600a3d3981f3363d3d373d3d3d363d730000008260601b60e81c176000526e5af43d82803e903d91602b57fd5bf38260781b17602052603760096000f0905073ffffffffffffffffffffffffffffffffffffffff811661033d576040517fc2f868f400000000000000000000000000000000000000000000000000000000815260040160405180910390fd5b919050565b6000815180845260005b818110156103685760208185018101518683018201520161034c565b5060006020828601015260207fffffffffffffffffffffffffffffffffffffffffffffffffffffffffffffffe0601f83011685010191505092915050565b6020815260006103b96020830184610342565b9392505050565b7f4e487b7100000000000000000000000000000000000000000000000000000000600052604160045260246000fd5b600082601f83011261040057600080fd5b813567ffffffffffffffff8082111561041b5761041b6103c0565b604051601f83017fffffffffffffffffffffffffffffffffffffffffffffffffffffffffffffffe0908116603f01168101908282118183101715610461576104616103c0565b8160405283815286602085880101111561047a57600080fd5b836020870160208301376000602085830101528094505050505092915050565b600080600080608085870312156104b057600080fd5b843573ffffffffffffffffffffffffffffffffffffffff811681146104d457600080fd5b9350602085013567ffffffffffffffff808211156104f157600080fd5b6104fd888389016103ef565b9450604087013591508082111561051357600080fd5b50610520878288016103ef565b925050606085013560ff8116811461053757600080fd5b939692955090935050565b600073ffffffffffffffffffffffffffffffffffffffff808816835280871660208401525060a0604083015261057b60a0830186610342565b828103606084015261058d8186610342565b91505060ff83166080830152969550505050505056",
    "linkReferences": {}
  },
  "methodIdentifiers": {
    "BRIDGE()": "ee9a31a2",
    "SuperMigrateErc20()": "9fa84d55",
    "beSuper(address,string,string,uint8)": "8c5b0cd8",
    "version()": "54fd4d50"
  },
  "id": 47
}