{
  "abi": [
    {
      "type": "function",
      "name": "UPGRADE_INTERFACE_VERSION",
      "inputs": [],
      "outputs": [
        {
          "name": "",
          "type": "string",
          "internalType": "string"
        }
      ],
      "stateMutability": "view"
    },
    {
      "type": "function",
      "name": "backendService",
      "inputs": [],
      "outputs": [
        {
          "name": "",
          "type": "address",
          "internalType": "address"
        }
      ],
      "stateMutability": "view"
    },
    {
      "type": "function",
      "name": "baseConversionRate",
      "inputs": [],
      "outputs": [
        {
          "name": "",
          "type": "uint256",
          "internalType": "uint256"
        }
      ],
      "stateMutability": "view"
    },
    {
      "type": "function",
      "name": "claim",
      "inputs": [
        {
          "name": "pointAmount",
          "type": "uint256",
          "internalType": "uint256"
        }
      ],
      "outputs": [],
      "stateMutability": "nonpayable"
    },
    {
      "type": "function",
      "name": "getClaimableAmount",
      "inputs": [
        {
          "name": "user",
          "type": "address",
          "internalType": "address"
        }
      ],
      "outputs": [
        {
          "name": "",
          "type": "uint256",
          "internalType": "uint256"
        }
      ],
      "stateMutability": "view"
    },
    {
      "type": "function",
      "name": "getUserData",
      "inputs": [
        {
          "name": "user",
          "type": "address",
          "internalType": "address"
        }
      ],
      "outputs": [
        {
          "name": "pointBalance",
          "type": "uint256",
          "internalType": "uint256"
        },
        {
          "name": "lastClaimTimestamp",
          "type": "uint256",
          "internalType": "uint256"
        },
        {
          "name": "tier",
          "type": "uint8",
          "internalType": "uint8"
        },
        {
          "name": "consecutiveWeeksClaimed",
          "type": "uint8",
          "internalType": "uint8"
        }
      ],
      "stateMutability": "view"
    },
    {
      "type": "function",
      "name": "helperContract",
      "inputs": [],
      "outputs": [
        {
          "name": "",
          "type": "address",
          "internalType": "contract IHelper"
        }
      ],
      "stateMutability": "view"
    },
    {
      "type": "function",
      "name": "initialize",
      "inputs": [
        {
          "name": "_backendService",
          "type": "address",
          "internalType": "address"
        },
        {
          "name": "_helperContract",
          "type": "address",
          "internalType": "address"
        },
        {
          "name": "_xpMigrateContract",
          "type": "address",
          "internalType": "address"
        }
      ],
      "outputs": [],
      "stateMutability": "nonpayable"
    },
    {
      "type": "function",
      "name": "owner",
      "inputs": [],
      "outputs": [
        {
          "name": "",
          "type": "address",
          "internalType": "address"
        }
      ],
      "stateMutability": "view"
    },
    {
      "type": "function",
      "name": "paused",
      "inputs": [],
      "outputs": [
        {
          "name": "",
          "type": "bool",
          "internalType": "bool"
        }
      ],
      "stateMutability": "view"
    },
    {
      "type": "function",
      "name": "proxiableUUID",
      "inputs": [],
      "outputs": [
        {
          "name": "",
          "type": "bytes32",
          "internalType": "bytes32"
        }
      ],
      "stateMutability": "view"
    },
    {
      "type": "function",
      "name": "recordPoints",
      "inputs": [
        {
          "name": "user",
          "type": "address",
          "internalType": "address"
        },
        {
          "name": "pointsAmount",
          "type": "uint256",
          "internalType": "uint256"
        },
        {
          "name": "actionType",
          "type": "uint8",
          "internalType": "enum Points.ActionType"
        }
      ],
      "outputs": [],
      "stateMutability": "nonpayable"
    },
    {
      "type": "function",
      "name": "renounceOwnership",
      "inputs": [],
      "outputs": [],
      "stateMutability": "nonpayable"
    },
    {
      "type": "function",
      "name": "transferOwnership",
      "inputs": [
        {
          "name": "newOwner",
          "type": "address",
          "internalType": "address"
        }
      ],
      "outputs": [],
      "stateMutability": "nonpayable"
    },
    {
      "type": "function",
      "name": "upgradeToAndCall",
      "inputs": [
        {
          "name": "newImplementation",
          "type": "address",
          "internalType": "address"
        },
        {
          "name": "data",
          "type": "bytes",
          "internalType": "bytes"
        }
      ],
      "outputs": [],
      "stateMutability": "payable"
    },
    {
      "type": "function",
      "name": "xpMigrateContract",
      "inputs": [],
      "outputs": [
        {
          "name": "",
          "type": "address",
          "internalType": "contract IXpMigrate"
        }
      ],
      "stateMutability": "view"
    },
    {
      "type": "event",
      "name": "Claimed",
      "inputs": [
        {
          "name": "user",
          "type": "address",
          "indexed": true,
          "internalType": "address"
        },
        {
          "name": "pointsUsed",
          "type": "uint256",
          "indexed": false,
          "internalType": "uint256"
        },
        {
          "name": "tokensMinted",
          "type": "uint256",
          "indexed": false,
          "internalType": "uint256"
        }
      ],
      "anonymous": false
    },
    {
      "type": "event",
      "name": "Initialized",
      "inputs": [
        {
          "name": "version",
          "type": "uint64",
          "indexed": false,
          "internalType": "uint64"
        }
      ],
      "anonymous": false
    },
    {
      "type": "event",
      "name": "OwnershipTransferred",
      "inputs": [
        {
          "name": "previousOwner",
          "type": "address",
          "indexed": true,
          "internalType": "address"
        },
        {
          "name": "newOwner",
          "type": "address",
          "indexed": true,
          "internalType": "address"
        }
      ],
      "anonymous": false
    },
    {
      "type": "event",
      "name": "Paused",
      "inputs": [
        {
          "name": "account",
          "type": "address",
          "indexed": false,
          "internalType": "address"
        }
      ],
      "anonymous": false
    },
    {
      "type": "event",
      "name": "PointsDeducted",
      "inputs": [
        {
          "name": "user",
          "type": "address",
          "indexed": true,
          "internalType": "address"
        },
        {
          "name": "amount",
          "type": "uint256",
          "indexed": false,
          "internalType": "uint256"
        }
      ],
      "anonymous": false
    },
    {
      "type": "event",
      "name": "PointsEarned",
      "inputs": [
        {
          "name": "user",
          "type": "address",
          "indexed": true,
          "internalType": "address"
        },
        {
          "name": "amount",
          "type": "uint256",
          "indexed": false,
          "internalType": "uint256"
        },
        {
          "name": "actionType",
          "type": "uint8",
          "indexed": false,
          "internalType": "enum Points.ActionType"
        }
      ],
      "anonymous": false
    },
    {
      "type": "event",
      "name": "Unpaused",
      "inputs": [
        {
          "name": "account",
          "type": "address",
          "indexed": false,
          "internalType": "address"
        }
      ],
      "anonymous": false
    },
    {
      "type": "event",
      "name": "Upgraded",
      "inputs": [
        {
          "name": "implementation",
          "type": "address",
          "indexed": true,
          "internalType": "address"
        }
      ],
      "anonymous": false
    },
    {
      "type": "error",
      "name": "AddressEmptyCode",
      "inputs": [
        {
          "name": "target",
          "type": "address",
          "internalType": "address"
        }
      ]
    },
    {
      "type": "error",
      "name": "ERC1967InvalidImplementation",
      "inputs": [
        {
          "name": "implementation",
          "type": "address",
          "internalType": "address"
        }
      ]
    },
    {
      "type": "error",
      "name": "ERC1967NonPayable",
      "inputs": []
    },
    {
      "type": "error",
      "name": "EnforcedPause",
      "inputs": []
    },
    {
      "type": "error",
      "name": "ExpectedPause",
      "inputs": []
    },
    {
      "type": "error",
      "name": "FailedInnerCall",
      "inputs": []
    },
    {
      "type": "error",
      "name": "InvalidInitialization",
      "inputs": []
    },
    {
      "type": "error",
      "name": "NotInitializing",
      "inputs": []
    },
    {
      "type": "error",
      "name": "OwnableInvalidOwner",
      "inputs": [
        {
          "name": "owner",
          "type": "address",
          "internalType": "address"
        }
      ]
    },
    {
      "type": "error",
      "name": "OwnableUnauthorizedAccount",
      "inputs": [
        {
          "name": "account",
          "type": "address",
          "internalType": "address"
        }
      ]
    },
    {
      "type": "error",
      "name": "UUPSUnauthorizedCallContext",
      "inputs": []
    },
    {
      "type": "error",
      "name": "UUPSUnsupportedProxiableUUID",
      "inputs": [
        {
          "name": "slot",
          "type": "bytes32",
          "internalType": "bytes32"
        }
      ]
    }
  ],
  "bytecode": {
    "object": "0x60a060405230608052348015601357600080fd5b50608051611d2061003d600039600081816111a8015281816111d101526113f20152611d206000f3fe6080604052600436106100f35760003560e01c8063ad3cb1cc1161008a578063dc72179011610059578063dc72179014610321578063e12f3a611461034e578063f2fde38b1461036e578063ffc9896b1461038e57600080fd5b8063ad3cb1cc14610275578063b2d45638146102cb578063c0c53b8b146102e1578063ca716e601461030157600080fd5b80635c975abb116100c65780635c975abb146101a7578063715018a6146101e95780638da5cb5b146101fe578063a5dc9e1b1461024857600080fd5b8063379607f5146100f85780633f2457211461011a5780634f1ef2861461017157806352d1902d14610184575b600080fd5b34801561010457600080fd5b50610118610113366004611919565b610437565b005b34801561012657600080fd5b506003546101479073ffffffffffffffffffffffffffffffffffffffff1681565b60405173ffffffffffffffffffffffffffffffffffffffff90911681526020015b60405180910390f35b61011861017f36600461198a565b61086c565b34801561019057600080fd5b5061019961088b565b604051908152602001610168565b3480156101b357600080fd5b507fcd5ed15c6e187e77e9aee88184c21f4f2182ab5827cb3b7e07fbedcd63f033005460ff166040519015158152602001610168565b3480156101f557600080fd5b506101186108ba565b34801561020a57600080fd5b507f9016d09d72d40fdae2fd8ceac6b6234c7706214fd39c1cd1e609a0528c1993005473ffffffffffffffffffffffffffffffffffffffff16610147565b34801561025457600080fd5b506002546101479073ffffffffffffffffffffffffffffffffffffffff1681565b34801561028157600080fd5b506102be6040518060400160405280600581526020017f352e302e3000000000000000000000000000000000000000000000000000000081525081565b6040516101689190611ab5565b3480156102d757600080fd5b5061019960045481565b3480156102ed57600080fd5b506101186102fc366004611b06565b6108ce565b34801561030d57600080fd5b5061011861031c366004611b49565b610ac7565b34801561032d57600080fd5b506001546101479073ffffffffffffffffffffffffffffffffffffffff1681565b34801561035a57600080fd5b50610199610369366004611b8d565b610cef565b34801561037a57600080fd5b50610118610389366004611b8d565b610e22565b34801561039a57600080fd5b5061040e6103a9366004611b8d565b73ffffffffffffffffffffffffffffffffffffffff166000908152602081815260409182902082516080810184528154808252600183015493820184905260029092015460ff8082169583018690526101009091041660609091018190529093919291565b60408051948552602085019390935260ff91821692840192909252166060820152608001610168565b61043f610e86565b33600090815260208181526040918290208251608080820185528254808352600184015483860181905260029094015460ff80821685890181905261010090920416606094850181905287519384018852828452958301859052958201869052918101849052909391929085158015906104ba575080518611155b610525576040517f08c379a000000000000000000000000000000000000000000000000000000000815260206004820152601460248201527f496e76616c696420706f696e7420616d6f756e7400000000000000000000000060448201526064015b60405180910390fd5b60025481516040517fb2080234000000000000000000000000000000000000000000000000000000008152600481019190915260009173ffffffffffffffffffffffffffffffffffffffff169063b208023490602401602060405180830381865afa158015610598573d6000803e3d6000fd5b505050506040513d601f19601f820116820180604052508101906105bc9190611ba8565b6002546040517f17e783b600000000000000000000000000000000000000000000000000000000815260ff831660048201529192506000918291829173ffffffffffffffffffffffffffffffffffffffff909116906317e783b690602401606060405180830381865afa158015610637573d6000803e3d6000fd5b505050506040513d601f19601f8201168201806040525081019061065b9190611bcb565b6040805160608101825284815260208082018590529181018390529089015193965091945092509061068e908390611c28565b4210156106f7576040517f08c379a000000000000000000000000000000000000000000000000000000000815260206004820152601b60248201527f436f6f6c646f776e20706572696f64206e6f7420656c61707365640000000000604482015260640161051c565b6020810151865160649161070a91611c3b565b6107149190611c52565b8b111561077d576040517f08c379a000000000000000000000000000000000000000000000000000000000815260206004820152601860248201527f4578636565647320636c61696d61626c6520616d6f756e740000000000000000604482015260640161051c565b60006004548c61078d9190611c52565b9050610799338d610ee2565b6003546040517f40c10f190000000000000000000000000000000000000000000000000000000081523360048201526024810183905273ffffffffffffffffffffffffffffffffffffffff909116906340c10f1990604401600060405180830381600087803b15801561080b57600080fd5b505af115801561081f573d6000803e3d6000fd5b5050604080518f8152602081018590523393507f987d620f307ff6b94d58743cb7a7509f24071586a77759b77c2d4e29f75a2f9a92500160405180910390a2505050505050505050505050565b610874611190565b61087d82611294565b610887828261129c565b5050565b60006108956113da565b507f360894a13ba1a3210667c828492db98dca3e2076cc3735a920a3ca505d382bbc90565b6108c2611449565b6108cc60006114d7565b565b7ff0c57e16840df040f15088dc2f81fe391c3923bec73e23a9662efc9c229c6a00805468010000000000000000810460ff16159067ffffffffffffffff166000811580156109195750825b905060008267ffffffffffffffff1660011480156109365750303b155b905081158015610944575080155b1561097b576040517ff92ee8a900000000000000000000000000000000000000000000000000000000815260040160405180910390fd5b84547fffffffffffffffffffffffffffffffffffffffffffffffff000000000000000016600117855583156109dc5784547fffffffffffffffffffffffffffffffffffffffffffffff00ffffffffffffffff16680100000000000000001785555b6109e53361156d565b6109ed61157e565b6109f5611586565b6001805473ffffffffffffffffffffffffffffffffffffffff808b167fffffffffffffffffffffffff000000000000000000000000000000000000000092831617909255600280548a8416908316179055600380549289169290911691909117905560646004558315610abd5784547fffffffffffffffffffffffffffffffffffffffffffffff00ffffffffffffffff168555604051600181527fc7f505b2f371ae2175ee4913f4499e1f2633a7b5936321eed1cdaeb6115181d29060200160405180910390a15b5050505050505050565b60015473ffffffffffffffffffffffffffffffffffffffff163314610b6e576040517f08c379a000000000000000000000000000000000000000000000000000000000815260206004820152602360248201527f4f6e6c79206261636b656e642063616e2063616c6c20746869732066756e637460448201527f696f6e0000000000000000000000000000000000000000000000000000000000606482015260840161051c565b610b76610e86565b73ffffffffffffffffffffffffffffffffffffffff831660009081526020819052604081208054849290610bab908490611c28565b909155505060025473ffffffffffffffffffffffffffffffffffffffff848116600090815260208190526040908190205490517fb2080234000000000000000000000000000000000000000000000000000000008152600481019190915291169063b208023490602401602060405180830381865afa158015610c32573d6000803e3d6000fd5b505050506040513d601f19601f82011682018060405250810190610c569190611ba8565b73ffffffffffffffffffffffffffffffffffffffff84166000818152602081905260409081902060020180547fffffffffffffffffffffffffffffffffffffffffffffffffffffffffffffff001660ff949094169390931790925590517f26b46ab665ea06530f95d3c61baea4c68b13059d2724a1b69e096f285bdfa2c990610ce29085908590611c8d565b60405180910390a2505050565b73ffffffffffffffffffffffffffffffffffffffff81811660009081526020818152604080832081516080810183528154808252600183015494820185905260029283015460ff80821684870181905261010090920416606093840152925484517f17e783b600000000000000000000000000000000000000000000000000000000815260048101859052945196979196939488948594859493909316926317e783b692602480820193918290030181865afa158015610db3573d6000803e3d6000fd5b505050506040513d601f19601f82011682018060405250810190610dd79190611bcb565b91945092509050610de88186611c28565b421015610dfd57506000979650505050505050565b60006064610e0b8489611c3b565b610e159190611c52565b9998505050505050505050565b610e2a611449565b73ffffffffffffffffffffffffffffffffffffffff8116610e7a576040517f1e4fbdf70000000000000000000000000000000000000000000000000000000081526000600482015260240161051c565b610e83816114d7565b50565b7fcd5ed15c6e187e77e9aee88184c21f4f2182ab5827cb3b7e07fbedcd63f033005460ff16156108cc576040517fd93c066500000000000000000000000000000000000000000000000000000000815260040160405180910390fd5b60015473ffffffffffffffffffffffffffffffffffffffff163314610f89576040517f08c379a000000000000000000000000000000000000000000000000000000000815260206004820152602360248201527f4f6e6c79206261636b656e642063616e2063616c6c20746869732066756e637460448201527f696f6e0000000000000000000000000000000000000000000000000000000000606482015260840161051c565b610f91610e86565b73ffffffffffffffffffffffffffffffffffffffff8216600090815260208190526040902054811115611020576040517f08c379a000000000000000000000000000000000000000000000000000000000815260206004820152601360248201527f496e73756666696369656e7420706f696e747300000000000000000000000000604482015260640161051c565b73ffffffffffffffffffffffffffffffffffffffff821660009081526020819052604081208054839290611055908490611cd8565b909155505060025473ffffffffffffffffffffffffffffffffffffffff838116600090815260208190526040908190205490517fb2080234000000000000000000000000000000000000000000000000000000008152600481019190915291169063b208023490602401602060405180830381865afa1580156110dc573d6000803e3d6000fd5b505050506040513d601f19601f820116820180604052508101906111009190611ba8565b73ffffffffffffffffffffffffffffffffffffffff83166000818152602081815260409182902060020180547fffffffffffffffffffffffffffffffffffffffffffffffffffffffffffffff001660ff95909516949094179093555183815290917ffde21baffcbcaa821fcc41afb0c18740451c67cdb6fac7e6c8fff105bc4ac61d910160405180910390a25050565b3073ffffffffffffffffffffffffffffffffffffffff7f000000000000000000000000000000000000000000000000000000000000000016148061125d57507f000000000000000000000000000000000000000000000000000000000000000073ffffffffffffffffffffffffffffffffffffffff166112447f360894a13ba1a3210667c828492db98dca3e2076cc3735a920a3ca505d382bbc5473ffffffffffffffffffffffffffffffffffffffff1690565b73ffffffffffffffffffffffffffffffffffffffff1614155b156108cc576040517fe07c8dba00000000000000000000000000000000000000000000000000000000815260040160405180910390fd5b610e83611449565b8173ffffffffffffffffffffffffffffffffffffffff166352d1902d6040518163ffffffff1660e01b8152600401602060405180830381865afa925050508015611321575060408051601f3d9081017fffffffffffffffffffffffffffffffffffffffffffffffffffffffffffffffe016820190925261131e91810190611ceb565b60015b61136f576040517f4c9c8ce300000000000000000000000000000000000000000000000000000000815273ffffffffffffffffffffffffffffffffffffffff8316600482015260240161051c565b7f360894a13ba1a3210667c828492db98dca3e2076cc3735a920a3ca505d382bbc81146113cb576040517faa1d49a40000000000000000000000000000000000000000000000000000000081526004810182905260240161051c565b6113d58383611596565b505050565b3073ffffffffffffffffffffffffffffffffffffffff7f000000000000000000000000000000000000000000000000000000000000000016146108cc576040517fe07c8dba00000000000000000000000000000000000000000000000000000000815260040160405180910390fd5b336114887f9016d09d72d40fdae2fd8ceac6b6234c7706214fd39c1cd1e609a0528c1993005473ffffffffffffffffffffffffffffffffffffffff1690565b73ffffffffffffffffffffffffffffffffffffffff16146108cc576040517f118cdaa700000000000000000000000000000000000000000000000000000000815233600482015260240161051c565b7f9016d09d72d40fdae2fd8ceac6b6234c7706214fd39c1cd1e609a0528c19930080547fffffffffffffffffffffffff0000000000000000000000000000000000000000811673ffffffffffffffffffffffffffffffffffffffff848116918217845560405192169182907f8be0079c531659141344cd1fd0a4f28419497f9722a3daafe3b4186f6b6457e090600090a3505050565b6115756115f9565b610e8381611660565b6108cc6115f9565b61158e6115f9565b6108cc611668565b61159f826116b9565b60405173ffffffffffffffffffffffffffffffffffffffff8316907fbc7cd75a20ee27fd9adebab32041f755214dbc6bffa90cc0225b39da2e5c2d3b90600090a28051156115f1576113d58282611788565b61088761180d565b7ff0c57e16840df040f15088dc2f81fe391c3923bec73e23a9662efc9c229c6a005468010000000000000000900460ff166108cc576040517fd7e6bcf800000000000000000000000000000000000000000000000000000000815260040160405180910390fd5b610e2a6115f9565b6116706115f9565b7fcd5ed15c6e187e77e9aee88184c21f4f2182ab5827cb3b7e07fbedcd63f0330080547fffffffffffffffffffffffffffffffffffffffffffffffffffffffffffffff00169055565b8073ffffffffffffffffffffffffffffffffffffffff163b600003611722576040517f4c9c8ce300000000000000000000000000000000000000000000000000000000815273ffffffffffffffffffffffffffffffffffffffff8216600482015260240161051c565b7f360894a13ba1a3210667c828492db98dca3e2076cc3735a920a3ca505d382bbc80547fffffffffffffffffffffffff00000000000000000000000000000000000000001673ffffffffffffffffffffffffffffffffffffffff92909216919091179055565b60606000808473ffffffffffffffffffffffffffffffffffffffff16846040516117b29190611d04565b600060405180830381855af49150503d80600081146117ed576040519150601f19603f3d011682016040523d82523d6000602084013e6117f2565b606091505b5091509150611802858383611845565b925050505b92915050565b34156108cc576040517fb398979f00000000000000000000000000000000000000000000000000000000815260040160405180910390fd5b60608261185a57611855826118d7565b6118d0565b815115801561187e575073ffffffffffffffffffffffffffffffffffffffff84163b155b156118cd576040517f9996b31500000000000000000000000000000000000000000000000000000000815273ffffffffffffffffffffffffffffffffffffffff8516600482015260240161051c565b50805b9392505050565b8051156118e75780518082602001fd5b6040517f1425ea4200000000000000000000000000000000000000000000000000000000815260040160405180910390fd5b60006020828403121561192b57600080fd5b5035919050565b803573ffffffffffffffffffffffffffffffffffffffff8116811461195657600080fd5b919050565b7f4e487b7100000000000000000000000000000000000000000000000000000000600052604160045260246000fd5b6000806040838503121561199d57600080fd5b6119a683611932565b9150602083013567ffffffffffffffff8111156119c257600080fd5b8301601f810185136119d357600080fd5b803567ffffffffffffffff8111156119ed576119ed61195b565b6040517fffffffffffffffffffffffffffffffffffffffffffffffffffffffffffffffe0603f7fffffffffffffffffffffffffffffffffffffffffffffffffffffffffffffffe0601f8501160116810181811067ffffffffffffffff82111715611a5957611a5961195b565b604052818152828201602001871015611a7157600080fd5b816020840160208301376000602083830101528093505050509250929050565b60005b83811015611aac578181015183820152602001611a94565b50506000910152565b6020815260008251806020840152611ad4816040850160208701611a91565b601f017fffffffffffffffffffffffffffffffffffffffffffffffffffffffffffffffe0169190910160400192915050565b600080600060608486031215611b1b57600080fd5b611b2484611932565b9250611b3260208501611932565b9150611b4060408501611932565b90509250925092565b600080600060608486031215611b5e57600080fd5b611b6784611932565b925060208401359150604084013560058110611b8257600080fd5b809150509250925092565b600060208284031215611b9f57600080fd5b6118d082611932565b600060208284031215611bba57600080fd5b815160ff811681146118d057600080fd5b600080600060608486031215611be057600080fd5b5050815160208301516040909301519094929350919050565b7f4e487b7100000000000000000000000000000000000000000000000000000000600052601160045260246000fd5b8082018082111561180757611807611bf9565b808202811582820484141761180757611807611bf9565b600082611c88577f4e487b7100000000000000000000000000000000000000000000000000000000600052601260045260246000fd5b500490565b8281526040810160058310611ccb577f4e487b7100000000000000000000000000000000000000000000000000000000600052602160045260246000fd5b8260208301529392505050565b8181038181111561180757611807611bf9565b600060208284031215611cfd57600080fd5b5051919050565b60008251611d16818460208701611a91565b919091019291505056",
    "linkReferences": {}
  },
  "methodIdentifiers": {
    "UPGRADE_INTERFACE_VERSION()": "ad3cb1cc",
    "backendService()": "dc721790",
    "baseConversionRate()": "b2d45638",
    "claim(uint256)": "379607f5",
    "getClaimableAmount(address)": "e12f3a61",
    "getUserData(address)": "ffc9896b",
    "helperContract()": "a5dc9e1b",
    "initialize(address,address,address)": "c0c53b8b",
    "owner()": "8da5cb5b",
    "paused()": "5c975abb",
    "proxiableUUID()": "52d1902d",
    "recordPoints(address,uint256,uint8)": "ca716e60",
    "renounceOwnership()": "715018a6",
    "transferOwnership(address)": "f2fde38b",
    "upgradeToAndCall(address,bytes)": "4f1ef286",
    "xpMigrateContract()": "3f245721"
  },
  "id": 47
}