{
  "abi": [
    {
      "type": "constructor",
      "inputs": [],
      "stateMutability": "nonpayable"
    },
    {
      "type": "function",
      "name": "MAX_SUPPLY",
      "inputs": [],
      "outputs": [
        {
          "name": "",
          "type": "uint256",
          "internalType": "uint256"
        }
      ],
      "stateMutability": "view"
    },
    {
      "type": "function",
      "name": "allowance",
      "inputs": [
        {
          "name": "owner",
          "type": "address",
          "internalType": "address"
        },
        {
          "name": "spender",
          "type": "address",
          "internalType": "address"
        }
      ],
      "outputs": [
        {
          "name": "",
          "type": "uint256",
          "internalType": "uint256"
        }
      ],
      "stateMutability": "view"
    },
    {
      "type": "function",
      "name": "approve",
      "inputs": [
        {
          "name": "spender",
          "type": "address",
          "internalType": "address"
        },
        {
          "name": "value",
          "type": "uint256",
          "internalType": "uint256"
        }
      ],
      "outputs": [
        {
          "name": "",
          "type": "bool",
          "internalType": "bool"
        }
      ],
      "stateMutability": "nonpayable"
    },
    {
      "type": "function",
      "name": "balanceOf",
      "inputs": [
        {
          "name": "account",
          "type": "address",
          "internalType": "address"
        }
      ],
      "outputs": [
        {
          "name": "",
          "type": "uint256",
          "internalType": "uint256"
        }
      ],
      "stateMutability": "view"
    },
    {
      "type": "function",
      "name": "burn",
      "inputs": [
        {
          "name": "from",
          "type": "address",
          "internalType": "address"
        },
        {
          "name": "amount",
          "type": "uint256",
          "internalType": "uint256"
        }
      ],
      "outputs": [],
      "stateMutability": "nonpayable"
    },
    {
      "type": "function",
      "name": "decimals",
      "inputs": [],
      "outputs": [
        {
          "name": "",
          "type": "uint8",
          "internalType": "uint8"
        }
      ],
      "stateMutability": "view"
    },
    {
      "type": "function",
      "name": "mint",
      "inputs": [
        {
          "name": "to",
          "type": "address",
          "internalType": "address"
        },
        {
          "name": "amount",
          "type": "uint256",
          "internalType": "uint256"
        }
      ],
      "outputs": [],
      "stateMutability": "nonpayable"
    },
    {
      "type": "function",
      "name": "name",
      "inputs": [],
      "outputs": [
        {
          "name": "",
          "type": "string",
          "internalType": "string"
        }
      ],
      "stateMutability": "view"
    },
    {
      "type": "function",
      "name": "owner",
      "inputs": [],
      "outputs": [
        {
          "name": "",
          "type": "address",
          "internalType": "address"
        }
      ],
      "stateMutability": "view"
    },
    {
      "type": "function",
      "name": "pointContract",
      "inputs": [],
      "outputs": [
        {
          "name": "",
          "type": "address",
          "internalType": "address"
        }
      ],
      "stateMutability": "view"
    },
    {
      "type": "function",
      "name": "renounceOwnership",
      "inputs": [],
      "outputs": [],
      "stateMutability": "nonpayable"
    },
    {
      "type": "function",
      "name": "setPointContract",
      "inputs": [
        {
          "name": "_pointContract",
          "type": "address",
          "internalType": "address"
        }
      ],
      "outputs": [],
      "stateMutability": "nonpayable"
    },
    {
      "type": "function",
      "name": "symbol",
      "inputs": [],
      "outputs": [
        {
          "name": "",
          "type": "string",
          "internalType": "string"
        }
      ],
      "stateMutability": "view"
    },
    {
      "type": "function",
      "name": "totalSupply",
      "inputs": [],
      "outputs": [
        {
          "name": "",
          "type": "uint256",
          "internalType": "uint256"
        }
      ],
      "stateMutability": "view"
    },
    {
      "type": "function",
      "name": "transfer",
      "inputs": [
        {
          "name": "to",
          "type": "address",
          "internalType": "address"
        },
        {
          "name": "value",
          "type": "uint256",
          "internalType": "uint256"
        }
      ],
      "outputs": [
        {
          "name": "",
          "type": "bool",
          "internalType": "bool"
        }
      ],
      "stateMutability": "nonpayable"
    },
    {
      "type": "function",
      "name": "transferFrom",
      "inputs": [
        {
          "name": "from",
          "type": "address",
          "internalType": "address"
        },
        {
          "name": "to",
          "type": "address",
          "internalType": "address"
        },
        {
          "name": "value",
          "type": "uint256",
          "internalType": "uint256"
        }
      ],
      "outputs": [
        {
          "name": "",
          "type": "bool",
          "internalType": "bool"
        }
      ],
      "stateMutability": "nonpayable"
    },
    {
      "type": "function",
      "name": "transferOwnership",
      "inputs": [
        {
          "name": "newOwner",
          "type": "address",
          "internalType": "address"
        }
      ],
      "outputs": [],
      "stateMutability": "nonpayable"
    },
    {
      "type": "event",
      "name": "Approval",
      "inputs": [
        {
          "name": "owner",
          "type": "address",
          "indexed": true,
          "internalType": "address"
        },
        {
          "name": "spender",
          "type": "address",
          "indexed": true,
          "internalType": "address"
        },
        {
          "name": "value",
          "type": "uint256",
          "indexed": false,
          "internalType": "uint256"
        }
      ],
      "anonymous": false
    },
    {
      "type": "event",
      "name": "OwnershipTransferred",
      "inputs": [
        {
          "name": "previousOwner",
          "type": "address",
          "indexed": true,
          "internalType": "address"
        },
        {
          "name": "newOwner",
          "type": "address",
          "indexed": true,
          "internalType": "address"
        }
      ],
      "anonymous": false
    },
    {
      "type": "event",
      "name": "Transfer",
      "inputs": [
        {
          "name": "from",
          "type": "address",
          "indexed": true,
          "internalType": "address"
        },
        {
          "name": "to",
          "type": "address",
          "indexed": true,
          "internalType": "address"
        },
        {
          "name": "value",
          "type": "uint256",
          "indexed": false,
          "internalType": "uint256"
        }
      ],
      "anonymous": false
    },
    {
      "type": "error",
      "name": "ERC20InsufficientAllowance",
      "inputs": [
        {
          "name": "spender",
          "type": "address",
          "internalType": "address"
        },
        {
          "name": "allowance",
          "type": "uint256",
          "internalType": "uint256"
        },
        {
          "name": "needed",
          "type": "uint256",
          "internalType": "uint256"
        }
      ]
    },
    {
      "type": "error",
      "name": "ERC20InsufficientBalance",
      "inputs": [
        {
          "name": "sender",
          "type": "address",
          "internalType": "address"
        },
        {
          "name": "balance",
          "type": "uint256",
          "internalType": "uint256"
        },
        {
          "name": "needed",
          "type": "uint256",
          "internalType": "uint256"
        }
      ]
    },
    {
      "type": "error",
      "name": "ERC20InvalidApprover",
      "inputs": [
        {
          "name": "approver",
          "type": "address",
          "internalType": "address"
        }
      ]
    },
    {
      "type": "error",
      "name": "ERC20InvalidReceiver",
      "inputs": [
        {
          "name": "receiver",
          "type": "address",
          "internalType": "address"
        }
      ]
    },
    {
      "type": "error",
      "name": "ERC20InvalidSender",
      "inputs": [
        {
          "name": "sender",
          "type": "address",
          "internalType": "address"
        }
      ]
    },
    {
      "type": "error",
      "name": "ERC20InvalidSpender",
      "inputs": [
        {
          "name": "spender",
          "type": "address",
          "internalType": "address"
        }
      ]
    },
    {
      "type": "error",
      "name": "OwnableInvalidOwner",
      "inputs": [
        {
          "name": "owner",
          "type": "address",
          "internalType": "address"
        }
      ]
    },
    {
      "type": "error",
      "name": "OwnableUnauthorizedAccount",
      "inputs": [
        {
          "name": "account",
          "type": "address",
          "internalType": "address"
        }
      ]
    }
  ],
  "bytecode": {
    "object": "0x608060405234801561001057600080fd5b50336040518060400160405280600981526020016878704d69677261746560b81b8152506040518060400160405280600381526020016258504d60e81b815250816003908161005f919061019d565b50600461006c828261019d565b5050506001600160a01b03811661009d57604051631e4fbdf760e01b81526000600482015260240160405180910390fd5b6100a6816100ac565b5061025b565b600580546001600160a01b038381166001600160a01b0319831681179093556040519116919082907f8be0079c531659141344cd1fd0a4f28419497f9722a3daafe3b4186f6b6457e090600090a35050565b634e487b7160e01b600052604160045260246000fd5b600181811c9082168061012857607f821691505b60208210810361014857634e487b7160e01b600052602260045260246000fd5b50919050565b601f82111561019857806000526020600020601f840160051c810160208510156101755750805b601f840160051c820191505b818110156101955760008155600101610181565b50505b505050565b81516001600160401b038111156101b6576101b66100fe565b6101ca816101c48454610114565b8461014e565b6020601f8211600181146101fe57600083156101e65750848201515b600019600385901b1c1916600184901b178455610195565b600084815260208120601f198516915b8281101561022e578785015182556020948501946001909201910161020e565b508482101561024c5786840151600019600387901b60f8161c191681555b50505050600190811b01905550565b610ea58061026a6000396000f3fe608060405234801561001057600080fd5b506004361061011b5760003560e01c8063715018a6116100b25780639dc29fac11610081578063b5a60d0911610066578063b5a60d091461028c578063dd62ed3e1461029f578063f2fde38b146102e557600080fd5b80639dc29fac14610266578063a9059cbb1461027957600080fd5b8063715018a6146101f357806373210fb1146101fb5780638da5cb5b1461024057806395d89b411461025e57600080fd5b8063313ce567116100ee578063313ce5671461018657806332cb6b0c1461019557806340c10f19146101a857806370a08231146101bd57600080fd5b806306fdde0314610120578063095ea7b31461013e57806318160ddd1461016157806323b872dd14610173575b600080fd5b6101286102f8565b6040516101359190610cc7565b60405180910390f35b61015161014c366004610d5c565b61038a565b6040519015158152602001610135565b6002545b604051908152602001610135565b610151610181366004610d86565b6103a4565b60405160128152602001610135565b6101656b033b2e3c9fd0803ce800000081565b6101bb6101b6366004610d5c565b6103c8565b005b6101656101cb366004610dc3565b73ffffffffffffffffffffffffffffffffffffffff1660009081526020819052604090205490565b6101bb610531565b60065461021b9073ffffffffffffffffffffffffffffffffffffffff1681565b60405173ffffffffffffffffffffffffffffffffffffffff9091168152602001610135565b60055473ffffffffffffffffffffffffffffffffffffffff1661021b565b610128610545565b6101bb610274366004610d5c565b610554565b610151610287366004610d5c565b610605565b6101bb61029a366004610dc3565b610613565b6101656102ad366004610de5565b73ffffffffffffffffffffffffffffffffffffffff918216600090815260016020908152604080832093909416825291909152205490565b6101bb6102f3366004610dc3565b610662565b60606003805461030790610e18565b80601f016020809104026020016040519081016040528092919081815260200182805461033390610e18565b80156103805780601f1061035557610100808354040283529160200191610380565b820191906000526020600020905b81548152906001019060200180831161036357829003601f168201915b5050505050905090565b6000336103988185856106c6565b60019150505b92915050565b6000336103b28582856106d8565b6103bd8585856107a7565b506001949350505050565b60065473ffffffffffffffffffffffffffffffffffffffff163314610474576040517f08c379a000000000000000000000000000000000000000000000000000000000815260206004820152602860248201527f58704d6967726174653a206f6e6c7920506f696e747320636f6e74726163742060448201527f63616e206d696e7400000000000000000000000000000000000000000000000060648201526084015b60405180910390fd5b6b033b2e3c9fd0803ce80000008161048b60025490565b6104959190610e6b565b1115610523576040517f08c379a000000000000000000000000000000000000000000000000000000000815260206004820152602a60248201527f58704d6967726174653a206d696e74696e6720776f756c64206578636565642060448201527f6d617820737570706c7900000000000000000000000000000000000000000000606482015260840161046b565b61052d8282610852565b5050565b6105396108ae565b6105436000610901565b565b60606004805461030790610e18565b60065473ffffffffffffffffffffffffffffffffffffffff1633146105fb576040517f08c379a000000000000000000000000000000000000000000000000000000000815260206004820152602860248201527f58704d6967726174653a206f6e6c7920506f696e747320636f6e74726163742060448201527f63616e206275726e000000000000000000000000000000000000000000000000606482015260840161046b565b61052d8282610978565b6000336103988185856107a7565b61061b6108ae565b600680547fffffffffffffffffffffffff00000000000000000000000000000000000000001673ffffffffffffffffffffffffffffffffffffffff92909216919091179055565b61066a6108ae565b73ffffffffffffffffffffffffffffffffffffffff81166106ba576040517f1e4fbdf70000000000000000000000000000000000000000000000000000000081526000600482015260240161046b565b6106c381610901565b50565b6106d383838360016109d4565b505050565b73ffffffffffffffffffffffffffffffffffffffff8381166000908152600160209081526040808320938616835292905220547fffffffffffffffffffffffffffffffffffffffffffffffffffffffffffffffff81146107a15781811015610792576040517ffb8f41b200000000000000000000000000000000000000000000000000000000815273ffffffffffffffffffffffffffffffffffffffff84166004820152602481018290526044810183905260640161046b565b6107a1848484840360006109d4565b50505050565b73ffffffffffffffffffffffffffffffffffffffff83166107f7576040517f96c6fd1e0000000000000000000000000000000000000000000000000000000081526000600482015260240161046b565b73ffffffffffffffffffffffffffffffffffffffff8216610847576040517fec442f050000000000000000000000000000000000000000000000000000000081526000600482015260240161046b565b6106d3838383610b1c565b73ffffffffffffffffffffffffffffffffffffffff82166108a2576040517fec442f050000000000000000000000000000000000000000000000000000000081526000600482015260240161046b565b61052d60008383610b1c565b60055473ffffffffffffffffffffffffffffffffffffffff163314610543576040517f118cdaa700000000000000000000000000000000000000000000000000000000815233600482015260240161046b565b6005805473ffffffffffffffffffffffffffffffffffffffff8381167fffffffffffffffffffffffff0000000000000000000000000000000000000000831681179093556040519116919082907f8be0079c531659141344cd1fd0a4f28419497f9722a3daafe3b4186f6b6457e090600090a35050565b73ffffffffffffffffffffffffffffffffffffffff82166109c8576040517f96c6fd1e0000000000000000000000000000000000000000000000000000000081526000600482015260240161046b565b61052d82600083610b1c565b73ffffffffffffffffffffffffffffffffffffffff8416610a24576040517fe602df050000000000000000000000000000000000000000000000000000000081526000600482015260240161046b565b73ffffffffffffffffffffffffffffffffffffffff8316610a74576040517f94280d620000000000000000000000000000000000000000000000000000000081526000600482015260240161046b565b73ffffffffffffffffffffffffffffffffffffffff808516600090815260016020908152604080832093871683529290522082905580156107a1578273ffffffffffffffffffffffffffffffffffffffff168473ffffffffffffffffffffffffffffffffffffffff167f8c5be1e5ebec7d5bd14f71427d1e84f3dd0314c0f7b2291e5b200ac8c7c3b92584604051610b0e91815260200190565b60405180910390a350505050565b73ffffffffffffffffffffffffffffffffffffffff8316610b54578060026000828254610b499190610e6b565b90915550610c069050565b73ffffffffffffffffffffffffffffffffffffffff831660009081526020819052604090205481811015610bda576040517fe450d38c00000000000000000000000000000000000000000000000000000000815273ffffffffffffffffffffffffffffffffffffffff85166004820152602481018290526044810183905260640161046b565b73ffffffffffffffffffffffffffffffffffffffff841660009081526020819052604090209082900390555b73ffffffffffffffffffffffffffffffffffffffff8216610c2f57600280548290039055610c5b565b73ffffffffffffffffffffffffffffffffffffffff821660009081526020819052604090208054820190555b8173ffffffffffffffffffffffffffffffffffffffff168373ffffffffffffffffffffffffffffffffffffffff167fddf252ad1be2c89b69c2b068fc378daa952ba7f163c4a11628f55a4df523b3ef83604051610cba91815260200190565b60405180910390a3505050565b602081526000825180602084015260005b81811015610cf55760208186018101516040868401015201610cd8565b5060006040828501015260407fffffffffffffffffffffffffffffffffffffffffffffffffffffffffffffffe0601f83011684010191505092915050565b803573ffffffffffffffffffffffffffffffffffffffff81168114610d5757600080fd5b919050565b60008060408385031215610d6f57600080fd5b610d7883610d33565b946020939093013593505050565b600080600060608486031215610d9b57600080fd5b610da484610d33565b9250610db260208501610d33565b929592945050506040919091013590565b600060208284031215610dd557600080fd5b610dde82610d33565b9392505050565b60008060408385031215610df857600080fd5b610e0183610d33565b9150610e0f60208401610d33565b90509250929050565b600181811c90821680610e2c57607f821691505b602082108103610e65577f4e487b7100000000000000000000000000000000000000000000000000000000600052602260045260246000fd5b50919050565b8082018082111561039e577f4e487b7100000000000000000000000000000000000000000000000000000000600052601160045260246000fd",
    "linkReferences": {}
  },
  "methodIdentifiers": {
    "MAX_SUPPLY()": "32cb6b0c",
    "allowance(address,address)": "dd62ed3e",
    "approve(address,uint256)": "095ea7b3",
    "balanceOf(address)": "70a08231",
    "burn(address,uint256)": "9dc29fac",
    "decimals()": "313ce567",
    "mint(address,uint256)": "40c10f19",
    "name()": "06fdde03",
    "owner()": "8da5cb5b",
    "pointContract()": "73210fb1",
    "renounceOwnership()": "715018a6",
    "setPointContract(address)": "b5a60d09",
    "symbol()": "95d89b41",
    "totalSupply()": "18160ddd",
    "transfer(address,uint256)": "a9059cbb",
    "transferFrom(address,address,uint256)": "23b872dd",
    "transferOwnership(address)": "f2fde38b"
  },
  "id": 48
}